{
  "transactions": [
    {
      "hash": "0x723902c49913b5fca81661fc3de1268f1e72e791cd430e13a6d3d0118d7e4ee0",
      "transactionType": "CALL",
      "contractName": null,
      "contractAddress": "0xf35831debfdb9077eddb9b443b80234014fcab68",
      "function": "approve(address,uint256)",
      "arguments": [
        "0x744148f00A39750150804C08F0214ad9815D877F",
        "10000000"
      ],
      "transaction": {
        "from": "0xd912d895924406ed71c591f914f1ee91cb6879ad",
        "to": "0xf35831debfdb9077eddb9b443b80234014fcab68",
        "gas": "0x10657",
        "value": "0x0",
        "input": "0x095ea7b3000000000000000000000000744148f00a39750150804c08f0214ad9815d877f0000000000000000000000000000000000000000000000000000000000989680",
        "nonce": "0x35",
        "chainId": "0x3e9"
      },
      "additionalContracts": [],
      "isFixedGasLimit": false
    },
    {
      "hash": "0x3b51a82d3864b15000ebfafa0feaf795b36b2e40856f7a0f5ff18b7a8dbde119",
      "transactionType": "CALL",
      "contractName": null,
      "contractAddress": "0x744148f00a39750150804c08f0214ad9815d877f",
      "function": "deposit(uint256,address)",
      "arguments": [
        "10000000",
        "0xd912D895924406Ed71c591f914F1eE91cB6879ad"
      ],
      "transaction": {
        "from": "0xd912d895924406ed71c591f914f1ee91cb6879ad",
        "to": "0x744148f00a39750150804c08f0214ad9815d877f",
        "gas": "0x78761",
        "value": "0x0",
        "input": "0x6e553f650000000000000000000000000000000000000000000000000000000000989680000000000000000000000000d912d895924406ed71c591f914f1ee91cb6879ad",
        "nonce": "0x36",
        "chainId": "0x3e9"
      },
      "additionalContracts": [],
      "isFixedGasLimit": false
    }
  ],
  "receipts": [
    {
      "status": "0x1",
      "cumulativeGasUsed": "0xb361",
      "logs": [
        {
          "address": "0xf35831debfdb9077eddb9b443b80234014fcab68",
          "topics": [
            "0x8c5be1e5ebec7d5bd14f71427d1e84f3dd0314c0f7b2291e5b200ac8c7c3b925",
            "0x000000000000000000000000d912d895924406ed71c591f914f1ee91cb6879ad",
            "0x000000000000000000000000744148f00a39750150804c08f0214ad9815d877f"
          ],
          "data": "0x0000000000000000000000000000000000000000000000000000000000989680",
          "blockHash": "0x5ead83d0b6a80a99152a89cd92287da9957eaa071e510588c1f424d4da9e8c8f",
          "blockNumber": "0xbb6005d",
          "transactionHash": "0x723902c49913b5fca81661fc3de1268f1e72e791cd430e13a6d3d0118d7e4ee0",
          "transactionIndex": "0x0",
          "logIndex": "0x0",
          "removed": false
        }
      ],
      "logsBloom": "0x00001000000000000000010000000000000000000000000000000000000000000000000000000000020000000000000000000000040000000000000000200000000008000000000000000000000000000000080000000000008000000000000000000000000000000000000000000000000000000010000000000000000000000000000000000000000000000000000000000000000000000000000000000000020000000000000000000000000000000000000000000000000000000000000000000000000000000000000000000000000000000000000000000000000000000010000000000000000000000000000000000000002000000000000000000000",
      "type": "0x2",
      "transactionHash": "0x723902c49913b5fca81661fc3de1268f1e72e791cd430e13a6d3d0118d7e4ee0",
      "transactionIndex": "0x0",
      "blockHash": "0x5ead83d0b6a80a99152a89cd92287da9957eaa071e510588c1f424d4da9e8c8f",
      "blockNumber": "0xbb6005d",
      "gasUsed": "0xb361",
      "effectiveGasPrice": "0x66720b300",
      "from": "0xd912d895924406ed71c591f914f1ee91cb6879ad",
      "to": "0xf35831debfdb9077eddb9b443b80234014fcab68",
      "contractAddress": null
    },
    {
      "status": "0x1",
      "cumulativeGasUsed": "0x626c5",
      "logs": [
        {
          "address": "0xf35831debfdb9077eddb9b443b80234014fcab68",
          "topics": [
            "0xddf252ad1be2c89b69c2b068fc378daa952ba7f163c4a11628f55a4df523b3ef",
            "0x000000000000000000000000d912d895924406ed71c591f914f1ee91cb6879ad",
            "0x000000000000000000000000744148f00a39750150804c08f0214ad9815d877f"
          ],
          "data": "0x0000000000000000000000000000000000000000000000000000000000989680",
          "blockHash": "0x5ead83d0b6a80a99152a89cd92287da9957eaa071e510588c1f424d4da9e8c8f",
          "blockNumber": "0xbb6005d",
          "transactionHash": "0x3b51a82d3864b15000ebfafa0feaf795b36b2e40856f7a0f5ff18b7a8dbde119",
          "transactionIndex": "0x1",
          "logIndex": "0x1",
          "removed": false
        },
        {
          "address": "0x744148f00a39750150804c08f0214ad9815d877f",
          "topics": [
            "0xddf252ad1be2c89b69c2b068fc378daa952ba7f163c4a11628f55a4df523b3ef",
            "0x0000000000000000000000000000000000000000000000000000000000000000",
            "0x000000000000000000000000d912d895924406ed71c591f914f1ee91cb6879ad"
          ],
          "data": "0x0000000000000000000000000000000000000000000000000000000000989680",
          "blockHash": "0x5ead83d0b6a80a99152a89cd92287da9957eaa071e510588c1f424d4da9e8c8f",
          "blockNumber": "0xbb6005d",
          "transactionHash": "0x3b51a82d3864b15000ebfafa0feaf795b36b2e40856f7a0f5ff18b7a8dbde119",
          "transactionIndex": "0x1",
          "logIndex": "0x2",
          "removed": false
        },
        {
          "address": "0x744148f00a39750150804c08f0214ad9815d877f",
          "topics": [
            "0xdcbc1c05240f31ff3ad067ef1ee35ce4997762752e3a095284754544f4c709d7",
            "0x000000000000000000000000d912d895924406ed71c591f914f1ee91cb6879ad",
            "0x000000000000000000000000d912d895924406ed71c591f914f1ee91cb6879ad"
          ],
          "data": "0x00000000000000000000000000000000000000000000000000000000009896800000000000000000000000000000000000000000000000000000000000989680",
          "blockHash": "0x5ead83d0b6a80a99152a89cd92287da9957eaa071e510588c1f424d4da9e8c8f",
          "blockNumber": "0xbb6005d",
          "transactionHash": "0x3b51a82d3864b15000ebfafa0feaf795b36b2e40856f7a0f5ff18b7a8dbde119",
          "transactionIndex": "0x1",
          "logIndex": "0x3",
          "removed": false
        },
        {
          "address": "0xf35831debfdb9077eddb9b443b80234014fcab68",
          "topics": [
            "0x8c5be1e5ebec7d5bd14f71427d1e84f3dd0314c0f7b2291e5b200ac8c7c3b925",
            "0x000000000000000000000000744148f00a39750150804c08f0214ad9815d877f",
            "0x0000000000000000000000004f41e0a5a653abd724434f7d255e96693056ed58"
          ],
          "data": "0x0000000000000000000000000000000000000000000000000000000000000000",
          "blockHash": "0x5ead83d0b6a80a99152a89cd92287da9957eaa071e510588c1f424d4da9e8c8f",
          "blockNumber": "0xbb6005d",
          "transactionHash": "0x3b51a82d3864b15000ebfafa0feaf795b36b2e40856f7a0f5ff18b7a8dbde119",
          "transactionIndex": "0x1",
          "logIndex": "0x4",
          "removed": false
        },
        {
          "address": "0xf35831debfdb9077eddb9b443b80234014fcab68",
          "topics": [
            "0x8c5be1e5ebec7d5bd14f71427d1e84f3dd0314c0f7b2291e5b200ac8c7c3b925",
            "0x000000000000000000000000744148f00a39750150804c08f0214ad9815d877f",
            "0x0000000000000000000000004f41e0a5a653abd724434f7d255e96693056ed58"
          ],
          "data": "0x00000000000000000000000000000000000000000000000000000000004c4b40",
          "blockHash": "0x5ead83d0b6a80a99152a89cd92287da9957eaa071e510588c1f424d4da9e8c8f",
          "blockNumber": "0xbb6005d",
          "transactionHash": "0x3b51a82d3864b15000ebfafa0feaf795b36b2e40856f7a0f5ff18b7a8dbde119",
          "transactionIndex": "0x1",
          "logIndex": "0x5",
          "removed": false
        },
        {
          "address": "0xf35831debfdb9077eddb9b443b80234014fcab68",
          "topics": [
            "0xddf252ad1be2c89b69c2b068fc378daa952ba7f163c4a11628f55a4df523b3ef",
            "0x000000000000000000000000744148f00a39750150804c08f0214ad9815d877f",
            "0x0000000000000000000000004f41e0a5a653abd724434f7d255e96693056ed58"
          ],
          "data": "0x00000000000000000000000000000000000000000000000000000000004c4b40",
          "blockHash": "0x5ead83d0b6a80a99152a89cd92287da9957eaa071e510588c1f424d4da9e8c8f",
          "blockNumber": "0xbb6005d",
          "transactionHash": "0x3b51a82d3864b15000ebfafa0feaf795b36b2e40856f7a0f5ff18b7a8dbde119",
          "transactionIndex": "0x1",
          "logIndex": "0x6",
          "removed": false
        },
        {
          "address": "0x105501e3affc3508704b6b9925ae8021e89a26af",
          "topics": [
            "0xddf252ad1be2c89b69c2b068fc378daa952ba7f163c4a11628f55a4df523b3ef",
            "0x0000000000000000000000004f41e0a5a653abd724434f7d255e96693056ed58",
            "0x000000000000000000000000744148f00a39750150804c08f0214ad9815d877f"
          ],
          "data": "0x000000000000000000000000000000000000000000000035203b67bccad00000",
          "blockHash": "0x5ead83d0b6a80a99152a89cd92287da9957eaa071e510588c1f424d4da9e8c8f",
          "blockNumber": "0xbb6005d",
          "transactionHash": "0x3b51a82d3864b15000ebfafa0feaf795b36b2e40856f7a0f5ff18b7a8dbde119",
          "transactionIndex": "0x1",
          "logIndex": "0x7",
          "removed": false
        },
        {
          "address": "0xf35831debfdb9077eddb9b443b80234014fcab68",
          "topics": [
            "0x8c5be1e5ebec7d5bd14f71427d1e84f3dd0314c0f7b2291e5b200ac8c7c3b925",
            "0x000000000000000000000000744148f00a39750150804c08f0214ad9815d877f",
            "0x000000000000000000000000e77b383a26da44fabad7d31d0912097588ede6b6"
          ],
          "data": "0x0000000000000000000000000000000000000000000000000000000000000000",
          "blockHash": "0x5ead83d0b6a80a99152a89cd92287da9957eaa071e510588c1f424d4da9e8c8f",
          "blockNumber": "0xbb6005d",
          "transactionHash": "0x3b51a82d3864b15000ebfafa0feaf795b36b2e40856f7a0f5ff18b7a8dbde119",
          "transactionIndex": "0x1",
          "logIndex": "0x8",
          "removed": false
        },
        {
          "address": "0xf35831debfdb9077eddb9b443b80234014fcab68",
          "topics": [
            "0x8c5be1e5ebec7d5bd14f71427d1e84f3dd0314c0f7b2291e5b200ac8c7c3b925",
            "0x000000000000000000000000744148f00a39750150804c08f0214ad9815d877f",
            "0x000000000000000000000000e77b383a26da44fabad7d31d0912097588ede6b6"
          ],
          "data": "0x00000000000000000000000000000000000000000000000000000000004c4b40",
          "blockHash": "0x5ead83d0b6a80a99152a89cd92287da9957eaa071e510588c1f424d4da9e8c8f",
          "blockNumber": "0xbb6005d",
          "transactionHash": "0x3b51a82d3864b15000ebfafa0feaf795b36b2e40856f7a0f5ff18b7a8dbde119",
          "transactionIndex": "0x1",
          "logIndex": "0x9",
          "removed": false
        },
        {
          "address": "0xf35831debfdb9077eddb9b443b80234014fcab68",
          "topics": [
            "0xddf252ad1be2c89b69c2b068fc378daa952ba7f163c4a11628f55a4df523b3ef",
            "0x000000000000000000000000744148f00a39750150804c08f0214ad9815d877f",
            "0x000000000000000000000000e77b383a26da44fabad7d31d0912097588ede6b6"
          ],
          "data": "0x00000000000000000000000000000000000000000000000000000000004c4b40",
          "blockHash": "0x5ead83d0b6a80a99152a89cd92287da9957eaa071e510588c1f424d4da9e8c8f",
          "blockNumber": "0xbb6005d",
          "transactionHash": "0x3b51a82d3864b15000ebfafa0feaf795b36b2e40856f7a0f5ff18b7a8dbde119",
          "transactionIndex": "0x1",
          "logIndex": "0xa",
          "removed": false
        },
        {
          "address": "0x744148f00a39750150804c08f0214ad9815d877f",
          "topics": [
            "0x1016dd3802d85d7f0edea8943b2098da8f36ba247e2a7d2999137e83bf2602da"
          ],
          "data": "0x000000000000000000000000000000000000000000000000000000000098968000000000000000000000000000000000000000000000000000000000004c4b4000000000000000000000000000000000000000000000000000000000004c4b40000000000000000000000000000000000000000000000035203b67bccad00000",
          "blockHash": "0x5ead83d0b6a80a99152a89cd92287da9957eaa071e510588c1f424d4da9e8c8f",
          "blockNumber": "0xbb6005d",
          "transactionHash": "0x3b51a82d3864b15000ebfafa0feaf795b36b2e40856f7a0f5ff18b7a8dbde119",
          "transactionIndex": "0x1",
          "logIndex": "0xb",
          "removed": false
        }
      ],
      "logsBloom": "0x00001000000000000004810000000000000000000000000000000000000000000000000000100000020000400800000000000000040000000000001000200000000008400000100080000008000000000400080200000000008000000000000040000000020000001000000000000800000000000014000000000010000000000400000000000000000000000000000000000000000000000000000000000000020000000000000000000000000000000000000000000000000000000000000000000002000000000000000000000000000000000008000000000000000030000010000000000000000000000000000000000000002010000000000000000000",
      "type": "0x2",
      "transactionHash": "0x3b51a82d3864b15000ebfafa0feaf795b36b2e40856f7a0f5ff18b7a8dbde119",
      "transactionIndex": "0x1",
      "blockHash": "0x5ead83d0b6a80a99152a89cd92287da9957eaa071e510588c1f424d4da9e8c8f",
      "blockNumber": "0xbb6005d",
      "gasUsed": "0x57364",
      "effectiveGasPrice": "0x66720b300",
      "from": "0xd912d895924406ed71c591f914f1ee91cb6879ad",
      "to": "0x744148f00a39750150804c08f0214ad9815d877f",
      "contractAddress": null
    }
  ],
  "libraries": [],
  "pending": [],
  "returns": {},
  "timestamp": 1758114726329,
  "chain": 1001,
  "commit": "7e11c3c"
}