{
  "transactions": [
    {
      "hash": "0xd92cba39136b7da62479deb0755110112ec3ba3fd805b215ffba441f9ce46df5",
      "transactionType": "CALL",
      "contractName": null,
      "contractAddress": "0xa58c3b965c7466a13ded331587a89c01dba25bd0",
      "function": "approve(address,uint256)",
      "arguments": [
        "0x789C0Db72B628cA1fA8330a6b40fFf9c5ee5F7Ec",
        "10000000"
      ],
      "transaction": {
        "from": "0xd912d895924406ed71c591f914f1ee91cb6879ad",
        "to": "0xa58c3b965c7466a13ded331587a89c01dba25bd0",
        "gas": "0x10657",
        "value": "0x0",
        "input": "0x095ea7b3000000000000000000000000789c0db72b628ca1fa8330a6b40fff9c5ee5f7ec0000000000000000000000000000000000000000000000000000000000989680",
        "nonce": "0x42",
        "chainId": "0x3e9"
      },
      "additionalContracts": [],
      "isFixedGasLimit": false
    },
    {
      "hash": "0x628a171d3ea3ad1403e640db5659e3fc42d1a6c1f3413aee8f75bf4a72f27725",
      "transactionType": "CALL",
      "contractName": null,
      "contractAddress": "0x789c0db72b628ca1fa8330a6b40fff9c5ee5f7ec",
      "function": "deposit(uint256,address)",
      "arguments": [
        "10000000",
        "0xd912D895924406Ed71c591f914F1eE91cB6879ad"
      ],
      "transaction": {
        "from": "0xd912d895924406ed71c591f914f1ee91cb6879ad",
        "to": "0x789c0db72b628ca1fa8330a6b40fff9c5ee5f7ec",
        "gas": "0x8803b",
        "value": "0x0",
        "input": "0x6e553f650000000000000000000000000000000000000000000000000000000000989680000000000000000000000000d912d895924406ed71c591f914f1ee91cb6879ad",
        "nonce": "0x43",
        "chainId": "0x3e9"
      },
      "additionalContracts": [],
      "isFixedGasLimit": false
    }
  ],
  "receipts": [
    {
      "status": "0x1",
      "cumulativeGasUsed": "0xb361",
      "logs": [
        {
          "address": "0xa58c3b965c7466a13ded331587a89c01dba25bd0",
          "topics": [
            "0x8c5be1e5ebec7d5bd14f71427d1e84f3dd0314c0f7b2291e5b200ac8c7c3b925",
            "0x000000000000000000000000d912d895924406ed71c591f914f1ee91cb6879ad",
            "0x000000000000000000000000789c0db72b628ca1fa8330a6b40fff9c5ee5f7ec"
          ],
          "data": "0x0000000000000000000000000000000000000000000000000000000000989680",
          "blockHash": "0xd81c6b91c6bc5350d35e730de2fded4196a865919b9ca48bc08c64b4f9606164",
          "blockNumber": "0xbb6321c",
          "transactionHash": "0xd92cba39136b7da62479deb0755110112ec3ba3fd805b215ffba441f9ce46df5",
          "transactionIndex": "0x0",
          "logIndex": "0x0",
          "removed": false
        }
      ],
      "logsBloom": "0x00000000000000000000000000000000000000000000000008000000000000000000000000000000020000000000000000000000040000000020000000200000000000004000000000400000000000000000000000000000008100000000000000000000000000000000000000000000000000000000000000000000000000000000000000000000000000000000000000000000000000000000000000000100020000000000000000000000000000000000000000000000000000000000000000000000000000000000000000000000000000000000000000000000000000000010000000000000000000000000000000000000000000000000000000000000",
      "type": "0x2",
      "transactionHash": "0xd92cba39136b7da62479deb0755110112ec3ba3fd805b215ffba441f9ce46df5",
      "transactionIndex": "0x0",
      "blockHash": "0xd81c6b91c6bc5350d35e730de2fded4196a865919b9ca48bc08c64b4f9606164",
      "blockNumber": "0xbb6321c",
      "gasUsed": "0xb361",
      "effectiveGasPrice": "0x66720b300",
      "from": "0xd912d895924406ed71c591f914f1ee91cb6879ad",
      "to": "0xa58c3b965c7466a13ded331587a89c01dba25bd0",
      "contractAddress": null
    },
    {
      "status": "0x1",
      "cumulativeGasUsed": "0x6daef",
      "logs": [
        {
          "address": "0xa58c3b965c7466a13ded331587a89c01dba25bd0",
          "topics": [
            "0xddf252ad1be2c89b69c2b068fc378daa952ba7f163c4a11628f55a4df523b3ef",
            "0x000000000000000000000000d912d895924406ed71c591f914f1ee91cb6879ad",
            "0x000000000000000000000000789c0db72b628ca1fa8330a6b40fff9c5ee5f7ec"
          ],
          "data": "0x0000000000000000000000000000000000000000000000000000000000989680",
          "blockHash": "0xd81c6b91c6bc5350d35e730de2fded4196a865919b9ca48bc08c64b4f9606164",
          "blockNumber": "0xbb6321c",
          "transactionHash": "0x628a171d3ea3ad1403e640db5659e3fc42d1a6c1f3413aee8f75bf4a72f27725",
          "transactionIndex": "0x1",
          "logIndex": "0x1",
          "removed": false
        },
        {
          "address": "0x789c0db72b628ca1fa8330a6b40fff9c5ee5f7ec",
          "topics": [
            "0xddf252ad1be2c89b69c2b068fc378daa952ba7f163c4a11628f55a4df523b3ef",
            "0x0000000000000000000000000000000000000000000000000000000000000000",
            "0x000000000000000000000000d912d895924406ed71c591f914f1ee91cb6879ad"
          ],
          "data": "0x0000000000000000000000000000000000000000000000000000000000989680",
          "blockHash": "0xd81c6b91c6bc5350d35e730de2fded4196a865919b9ca48bc08c64b4f9606164",
          "blockNumber": "0xbb6321c",
          "transactionHash": "0x628a171d3ea3ad1403e640db5659e3fc42d1a6c1f3413aee8f75bf4a72f27725",
          "transactionIndex": "0x1",
          "logIndex": "0x2",
          "removed": false
        },
        {
          "address": "0x789c0db72b628ca1fa8330a6b40fff9c5ee5f7ec",
          "topics": [
            "0xdcbc1c05240f31ff3ad067ef1ee35ce4997762752e3a095284754544f4c709d7",
            "0x000000000000000000000000d912d895924406ed71c591f914f1ee91cb6879ad",
            "0x000000000000000000000000d912d895924406ed71c591f914f1ee91cb6879ad"
          ],
          "data": "0x00000000000000000000000000000000000000000000000000000000009896800000000000000000000000000000000000000000000000000000000000989680",
          "blockHash": "0xd81c6b91c6bc5350d35e730de2fded4196a865919b9ca48bc08c64b4f9606164",
          "blockNumber": "0xbb6321c",
          "transactionHash": "0x628a171d3ea3ad1403e640db5659e3fc42d1a6c1f3413aee8f75bf4a72f27725",
          "transactionIndex": "0x1",
          "logIndex": "0x3",
          "removed": false
        },
        {
          "address": "0xa58c3b965c7466a13ded331587a89c01dba25bd0",
          "topics": [
            "0x8c5be1e5ebec7d5bd14f71427d1e84f3dd0314c0f7b2291e5b200ac8c7c3b925",
            "0x000000000000000000000000789c0db72b628ca1fa8330a6b40fff9c5ee5f7ec",
            "0x0000000000000000000000001adbf2de06345022c992359fc90340af883b85dd"
          ],
          "data": "0x0000000000000000000000000000000000000000000000000000000000000000",
          "blockHash": "0xd81c6b91c6bc5350d35e730de2fded4196a865919b9ca48bc08c64b4f9606164",
          "blockNumber": "0xbb6321c",
          "transactionHash": "0x628a171d3ea3ad1403e640db5659e3fc42d1a6c1f3413aee8f75bf4a72f27725",
          "transactionIndex": "0x1",
          "logIndex": "0x4",
          "removed": false
        },
        {
          "address": "0xa58c3b965c7466a13ded331587a89c01dba25bd0",
          "topics": [
            "0x8c5be1e5ebec7d5bd14f71427d1e84f3dd0314c0f7b2291e5b200ac8c7c3b925",
            "0x000000000000000000000000789c0db72b628ca1fa8330a6b40fff9c5ee5f7ec",
            "0x0000000000000000000000001adbf2de06345022c992359fc90340af883b85dd"
          ],
          "data": "0x00000000000000000000000000000000000000000000000000000000004c4b40",
          "blockHash": "0xd81c6b91c6bc5350d35e730de2fded4196a865919b9ca48bc08c64b4f9606164",
          "blockNumber": "0xbb6321c",
          "transactionHash": "0x628a171d3ea3ad1403e640db5659e3fc42d1a6c1f3413aee8f75bf4a72f27725",
          "transactionIndex": "0x1",
          "logIndex": "0x5",
          "removed": false
        },
        {
          "address": "0xa58c3b965c7466a13ded331587a89c01dba25bd0",
          "topics": [
            "0xddf252ad1be2c89b69c2b068fc378daa952ba7f163c4a11628f55a4df523b3ef",
            "0x000000000000000000000000789c0db72b628ca1fa8330a6b40fff9c5ee5f7ec",
            "0x0000000000000000000000001adbf2de06345022c992359fc90340af883b85dd"
          ],
          "data": "0x00000000000000000000000000000000000000000000000000000000004c4b40",
          "blockHash": "0xd81c6b91c6bc5350d35e730de2fded4196a865919b9ca48bc08c64b4f9606164",
          "blockNumber": "0xbb6321c",
          "transactionHash": "0x628a171d3ea3ad1403e640db5659e3fc42d1a6c1f3413aee8f75bf4a72f27725",
          "transactionIndex": "0x1",
          "logIndex": "0x6",
          "removed": false
        },
        {
          "address": "0x15c99eaf4e8d94820d8438e4d045ecd164b9701e",
          "topics": [
            "0xddf252ad1be2c89b69c2b068fc378daa952ba7f163c4a11628f55a4df523b3ef",
            "0x0000000000000000000000001adbf2de06345022c992359fc90340af883b85dd",
            "0x000000000000000000000000789c0db72b628ca1fa8330a6b40fff9c5ee5f7ec"
          ],
          "data": "0x000000000000000000000000000000000000000000000035203b67bccad00000",
          "blockHash": "0xd81c6b91c6bc5350d35e730de2fded4196a865919b9ca48bc08c64b4f9606164",
          "blockNumber": "0xbb6321c",
          "transactionHash": "0x628a171d3ea3ad1403e640db5659e3fc42d1a6c1f3413aee8f75bf4a72f27725",
          "transactionIndex": "0x1",
          "logIndex": "0x7",
          "removed": false
        },
        {
          "address": "0xa58c3b965c7466a13ded331587a89c01dba25bd0",
          "topics": [
            "0x8c5be1e5ebec7d5bd14f71427d1e84f3dd0314c0f7b2291e5b200ac8c7c3b925",
            "0x000000000000000000000000789c0db72b628ca1fa8330a6b40fff9c5ee5f7ec",
            "0x000000000000000000000000c8833abdfb7297934271ddbdc533aa4f111c90ab"
          ],
          "data": "0x0000000000000000000000000000000000000000000000000000000000000000",
          "blockHash": "0xd81c6b91c6bc5350d35e730de2fded4196a865919b9ca48bc08c64b4f9606164",
          "blockNumber": "0xbb6321c",
          "transactionHash": "0x628a171d3ea3ad1403e640db5659e3fc42d1a6c1f3413aee8f75bf4a72f27725",
          "transactionIndex": "0x1",
          "logIndex": "0x8",
          "removed": false
        },
        {
          "address": "0xa58c3b965c7466a13ded331587a89c01dba25bd0",
          "topics": [
            "0x8c5be1e5ebec7d5bd14f71427d1e84f3dd0314c0f7b2291e5b200ac8c7c3b925",
            "0x000000000000000000000000789c0db72b628ca1fa8330a6b40fff9c5ee5f7ec",
            "0x000000000000000000000000c8833abdfb7297934271ddbdc533aa4f111c90ab"
          ],
          "data": "0x00000000000000000000000000000000000000000000000000000000004c4b40",
          "blockHash": "0xd81c6b91c6bc5350d35e730de2fded4196a865919b9ca48bc08c64b4f9606164",
          "blockNumber": "0xbb6321c",
          "transactionHash": "0x628a171d3ea3ad1403e640db5659e3fc42d1a6c1f3413aee8f75bf4a72f27725",
          "transactionIndex": "0x1",
          "logIndex": "0x9",
          "removed": false
        },
        {
          "address": "0xa58c3b965c7466a13ded331587a89c01dba25bd0",
          "topics": [
            "0xddf252ad1be2c89b69c2b068fc378daa952ba7f163c4a11628f55a4df523b3ef",
            "0x000000000000000000000000789c0db72b628ca1fa8330a6b40fff9c5ee5f7ec",
            "0x000000000000000000000000c8833abdfb7297934271ddbdc533aa4f111c90ab"
          ],
          "data": "0x00000000000000000000000000000000000000000000000000000000004c4b40",
          "blockHash": "0xd81c6b91c6bc5350d35e730de2fded4196a865919b9ca48bc08c64b4f9606164",
          "blockNumber": "0xbb6321c",
          "transactionHash": "0x628a171d3ea3ad1403e640db5659e3fc42d1a6c1f3413aee8f75bf4a72f27725",
          "transactionIndex": "0x1",
          "logIndex": "0xa",
          "removed": false
        },
        {
          "address": "0x789c0db72b628ca1fa8330a6b40fff9c5ee5f7ec",
          "topics": [
            "0x1016dd3802d85d7f0edea8943b2098da8f36ba247e2a7d2999137e83bf2602da"
          ],
          "data": "0x000000000000000000000000000000000000000000000000000000000098968000000000000000000000000000000000000000000000000000000000004c4b4000000000000000000000000000000000000000000000000000000000004c4b40000000000000000000000000000000000000000000000035203b67bccad00000",
          "blockHash": "0xd81c6b91c6bc5350d35e730de2fded4196a865919b9ca48bc08c64b4f9606164",
          "blockNumber": "0xbb6321c",
          "transactionHash": "0x628a171d3ea3ad1403e640db5659e3fc42d1a6c1f3413aee8f75bf4a72f27725",
          "transactionIndex": "0x1",
          "logIndex": "0xb",
          "removed": false
        }
      ],
      "logsBloom": "0x00000000000000000000000000000000000000000000000008000000000000000000020000000000020000000000000008000000040000000220001000200000000000404000000080400008000400000000100000000000008100000000200000000000020000000000000000000800000000000004000000040010000000000400000000000000000000000000000000000000000000000000010000000100020000000000000000000000000000000000000000000000000000020000000000000082000000000000000000000000000000000008000000000000000020000018000000000000000000000000000000000000000000000080000000000000",
      "type": "0x2",
      "transactionHash": "0x628a171d3ea3ad1403e640db5659e3fc42d1a6c1f3413aee8f75bf4a72f27725",
      "transactionIndex": "0x1",
      "blockHash": "0xd81c6b91c6bc5350d35e730de2fded4196a865919b9ca48bc08c64b4f9606164",
      "blockNumber": "0xbb6321c",
      "gasUsed": "0x6278e",
      "effectiveGasPrice": "0x66720b300",
      "from": "0xd912d895924406ed71c591f914f1ee91cb6879ad",
      "to": "0x789c0db72b628ca1fa8330a6b40fff9c5ee5f7ec",
      "contractAddress": null
    }
  ],
  "libraries": [],
  "pending": [],
  "returns": {},
  "timestamp": 1758127461551,
  "chain": 1001,
  "commit": "cc54002"
}