{
  "transactions": [
    {
      "hash": "0x6286993d6b125d92caa8589ca3dc561eeadb323a9c9daba50ea0685f855daff4",
      "transactionType": "CALL",
      "contractName": null,
      "contractAddress": "0xeeb3432dc5bb3b6a774b97a125a498cb528a640b",
      "function": "approve(address,uint256)",
      "arguments": [
        "0x1A2e956C4E342708688b878f07b469680487a3Ba",
        "10000000000"
      ],
      "transaction": {
        "from": "0xd912d895924406ed71c591f914f1ee91cb6879ad",
        "to": "0xeeb3432dc5bb3b6a774b97a125a498cb528a640b",
        "gas": "0xf7d3",
        "value": "0x0",
        "input": "0x095ea7b30000000000000000000000001a2e956c4e342708688b878f07b469680487a3ba00000000000000000000000000000000000000000000000000000002540be400",
        "nonce": "0x5b",
        "chainId": "0x3e9"
      },
      "additionalContracts": [],
      "isFixedGasLimit": false
    },
    {
      "hash": "0xceeb44fdbe11e3fe1dbc1ec5ef640ff5412cae58307e7a62e095a4d1aa95a5c8",
      "transactionType": "CALL",
      "contractName": null,
      "contractAddress": "0x1a2e956c4e342708688b878f07b469680487a3ba",
      "function": "deposit(uint256,address)",
      "arguments": [
        "10000000000",
        "0xd912D895924406Ed71c591f914F1eE91cB6879ad"
      ],
      "transaction": {
        "from": "0xd912d895924406ed71c591f914f1ee91cb6879ad",
        "to": "0x1a2e956c4e342708688b878f07b469680487a3ba",
        "gas": "0x88ae7",
        "value": "0x0",
        "input": "0x6e553f6500000000000000000000000000000000000000000000000000000002540be400000000000000000000000000d912d895924406ed71c591f914f1ee91cb6879ad",
        "nonce": "0x5c",
        "chainId": "0x3e9"
      },
      "additionalContracts": [],
      "isFixedGasLimit": false
    }
  ],
  "receipts": [
    {
      "status": "0x1",
      "cumulativeGasUsed": "0xb36d",
      "logs": [
        {
          "address": "0xeeb3432dc5bb3b6a774b97a125a498cb528a640b",
          "topics": [
            "0x8c5be1e5ebec7d5bd14f71427d1e84f3dd0314c0f7b2291e5b200ac8c7c3b925",
            "0x000000000000000000000000d912d895924406ed71c591f914f1ee91cb6879ad",
            "0x0000000000000000000000001a2e956c4e342708688b878f07b469680487a3ba"
          ],
          "data": "0x00000000000000000000000000000000000000000000000000000002540be400",
          "blockHash": "0x3e93ef323e0724ec279a949a45c741903342ef839e1f70587bd0ae128df82e95",
          "blockNumber": "0xbb6a470",
          "transactionHash": "0x6286993d6b125d92caa8589ca3dc561eeadb323a9c9daba50ea0685f855daff4",
          "transactionIndex": "0x0",
          "logIndex": "0x0",
          "removed": false
        }
      ],
      "logsBloom": "0x00000000000002000000000000000000000000000000000000000000000000000000000000000000020000000000000000000000040000000000000000200400000000000000000000000000000000000000000000000000008000000000000000000000000000000000000000000000000000000000000000000000000000000000080000000000000000000000000000000008000000000000100000000000020000000000000000000000000000000000040000000000000000000000000000000000000000000000000000000000000000000000000000000000000000000010000000000000000000000000000000000000000000000000000000000000",
      "type": "0x2",
      "transactionHash": "0x6286993d6b125d92caa8589ca3dc561eeadb323a9c9daba50ea0685f855daff4",
      "transactionIndex": "0x0",
      "blockHash": "0x3e93ef323e0724ec279a949a45c741903342ef839e1f70587bd0ae128df82e95",
      "blockNumber": "0xbb6a470",
      "gasUsed": "0xb36d",
      "effectiveGasPrice": "0x66720b300",
      "from": "0xd912d895924406ed71c591f914f1ee91cb6879ad",
      "to": "0xeeb3432dc5bb3b6a774b97a125a498cb528a640b",
      "contractAddress": null
    },
    {
      "status": "0x1",
      "cumulativeGasUsed": "0x6e2b5",
      "logs": [
        {
          "address": "0xeeb3432dc5bb3b6a774b97a125a498cb528a640b",
          "topics": [
            "0xddf252ad1be2c89b69c2b068fc378daa952ba7f163c4a11628f55a4df523b3ef",
            "0x000000000000000000000000d912d895924406ed71c591f914f1ee91cb6879ad",
            "0x0000000000000000000000001a2e956c4e342708688b878f07b469680487a3ba"
          ],
          "data": "0x00000000000000000000000000000000000000000000000000000002540be400",
          "blockHash": "0x3e93ef323e0724ec279a949a45c741903342ef839e1f70587bd0ae128df82e95",
          "blockNumber": "0xbb6a470",
          "transactionHash": "0xceeb44fdbe11e3fe1dbc1ec5ef640ff5412cae58307e7a62e095a4d1aa95a5c8",
          "transactionIndex": "0x1",
          "logIndex": "0x1",
          "removed": false
        },
        {
          "address": "0x1a2e956c4e342708688b878f07b469680487a3ba",
          "topics": [
            "0xddf252ad1be2c89b69c2b068fc378daa952ba7f163c4a11628f55a4df523b3ef",
            "0x0000000000000000000000000000000000000000000000000000000000000000",
            "0x000000000000000000000000d912d895924406ed71c591f914f1ee91cb6879ad"
          ],
          "data": "0x00000000000000000000000000000000000000000000000000000002540be400",
          "blockHash": "0x3e93ef323e0724ec279a949a45c741903342ef839e1f70587bd0ae128df82e95",
          "blockNumber": "0xbb6a470",
          "transactionHash": "0xceeb44fdbe11e3fe1dbc1ec5ef640ff5412cae58307e7a62e095a4d1aa95a5c8",
          "transactionIndex": "0x1",
          "logIndex": "0x2",
          "removed": false
        },
        {
          "address": "0x1a2e956c4e342708688b878f07b469680487a3ba",
          "topics": [
            "0xdcbc1c05240f31ff3ad067ef1ee35ce4997762752e3a095284754544f4c709d7",
            "0x000000000000000000000000d912d895924406ed71c591f914f1ee91cb6879ad",
            "0x000000000000000000000000d912d895924406ed71c591f914f1ee91cb6879ad"
          ],
          "data": "0x00000000000000000000000000000000000000000000000000000002540be40000000000000000000000000000000000000000000000000000000002540be400",
          "blockHash": "0x3e93ef323e0724ec279a949a45c741903342ef839e1f70587bd0ae128df82e95",
          "blockNumber": "0xbb6a470",
          "transactionHash": "0xceeb44fdbe11e3fe1dbc1ec5ef640ff5412cae58307e7a62e095a4d1aa95a5c8",
          "transactionIndex": "0x1",
          "logIndex": "0x3",
          "removed": false
        },
        {
          "address": "0xeeb3432dc5bb3b6a774b97a125a498cb528a640b",
          "topics": [
            "0x8c5be1e5ebec7d5bd14f71427d1e84f3dd0314c0f7b2291e5b200ac8c7c3b925",
            "0x0000000000000000000000001a2e956c4e342708688b878f07b469680487a3ba",
            "0x000000000000000000000000fed0f3f013183981128005eff2d687b3ad021d6a"
          ],
          "data": "0x0000000000000000000000000000000000000000000000000000000000000000",
          "blockHash": "0x3e93ef323e0724ec279a949a45c741903342ef839e1f70587bd0ae128df82e95",
          "blockNumber": "0xbb6a470",
          "transactionHash": "0xceeb44fdbe11e3fe1dbc1ec5ef640ff5412cae58307e7a62e095a4d1aa95a5c8",
          "transactionIndex": "0x1",
          "logIndex": "0x4",
          "removed": false
        },
        {
          "address": "0xeeb3432dc5bb3b6a774b97a125a498cb528a640b",
          "topics": [
            "0x8c5be1e5ebec7d5bd14f71427d1e84f3dd0314c0f7b2291e5b200ac8c7c3b925",
            "0x0000000000000000000000001a2e956c4e342708688b878f07b469680487a3ba",
            "0x000000000000000000000000fed0f3f013183981128005eff2d687b3ad021d6a"
          ],
          "data": "0x000000000000000000000000000000000000000000000000000000012a05f200",
          "blockHash": "0x3e93ef323e0724ec279a949a45c741903342ef839e1f70587bd0ae128df82e95",
          "blockNumber": "0xbb6a470",
          "transactionHash": "0xceeb44fdbe11e3fe1dbc1ec5ef640ff5412cae58307e7a62e095a4d1aa95a5c8",
          "transactionIndex": "0x1",
          "logIndex": "0x5",
          "removed": false
        },
        {
          "address": "0xeeb3432dc5bb3b6a774b97a125a498cb528a640b",
          "topics": [
            "0xddf252ad1be2c89b69c2b068fc378daa952ba7f163c4a11628f55a4df523b3ef",
            "0x0000000000000000000000001a2e956c4e342708688b878f07b469680487a3ba",
            "0x000000000000000000000000fed0f3f013183981128005eff2d687b3ad021d6a"
          ],
          "data": "0x000000000000000000000000000000000000000000000000000000012a05f200",
          "blockHash": "0x3e93ef323e0724ec279a949a45c741903342ef839e1f70587bd0ae128df82e95",
          "blockNumber": "0xbb6a470",
          "transactionHash": "0xceeb44fdbe11e3fe1dbc1ec5ef640ff5412cae58307e7a62e095a4d1aa95a5c8",
          "transactionIndex": "0x1",
          "logIndex": "0x6",
          "removed": false
        },
        {
          "address": "0xceb9f9be9cee2704b4999fa512031125bc15f7ff",
          "topics": [
            "0xddf252ad1be2c89b69c2b068fc378daa952ba7f163c4a11628f55a4df523b3ef",
            "0x000000000000000000000000fed0f3f013183981128005eff2d687b3ad021d6a",
            "0x0000000000000000000000001a2e956c4e342708688b878f07b469680487a3ba"
          ],
          "data": "0x00000000000000000000000000000000000000000000065fb969bb5d79d00000",
          "blockHash": "0x3e93ef323e0724ec279a949a45c741903342ef839e1f70587bd0ae128df82e95",
          "blockNumber": "0xbb6a470",
          "transactionHash": "0xceeb44fdbe11e3fe1dbc1ec5ef640ff5412cae58307e7a62e095a4d1aa95a5c8",
          "transactionIndex": "0x1",
          "logIndex": "0x7",
          "removed": false
        },
        {
          "address": "0xeeb3432dc5bb3b6a774b97a125a498cb528a640b",
          "topics": [
            "0x8c5be1e5ebec7d5bd14f71427d1e84f3dd0314c0f7b2291e5b200ac8c7c3b925",
            "0x0000000000000000000000001a2e956c4e342708688b878f07b469680487a3ba",
            "0x00000000000000000000000033ae95ccb382d0c9dd82634657521698c1e4c071"
          ],
          "data": "0x0000000000000000000000000000000000000000000000000000000000000000",
          "blockHash": "0x3e93ef323e0724ec279a949a45c741903342ef839e1f70587bd0ae128df82e95",
          "blockNumber": "0xbb6a470",
          "transactionHash": "0xceeb44fdbe11e3fe1dbc1ec5ef640ff5412cae58307e7a62e095a4d1aa95a5c8",
          "transactionIndex": "0x1",
          "logIndex": "0x8",
          "removed": false
        },
        {
          "address": "0xeeb3432dc5bb3b6a774b97a125a498cb528a640b",
          "topics": [
            "0x8c5be1e5ebec7d5bd14f71427d1e84f3dd0314c0f7b2291e5b200ac8c7c3b925",
            "0x0000000000000000000000001a2e956c4e342708688b878f07b469680487a3ba",
            "0x00000000000000000000000033ae95ccb382d0c9dd82634657521698c1e4c071"
          ],
          "data": "0x000000000000000000000000000000000000000000000000000000012a05f200",
          "blockHash": "0x3e93ef323e0724ec279a949a45c741903342ef839e1f70587bd0ae128df82e95",
          "blockNumber": "0xbb6a470",
          "transactionHash": "0xceeb44fdbe11e3fe1dbc1ec5ef640ff5412cae58307e7a62e095a4d1aa95a5c8",
          "transactionIndex": "0x1",
          "logIndex": "0x9",
          "removed": false
        },
        {
          "address": "0xeeb3432dc5bb3b6a774b97a125a498cb528a640b",
          "topics": [
            "0xddf252ad1be2c89b69c2b068fc378daa952ba7f163c4a11628f55a4df523b3ef",
            "0x0000000000000000000000001a2e956c4e342708688b878f07b469680487a3ba",
            "0x00000000000000000000000033ae95ccb382d0c9dd82634657521698c1e4c071"
          ],
          "data": "0x000000000000000000000000000000000000000000000000000000012a05f200",
          "blockHash": "0x3e93ef323e0724ec279a949a45c741903342ef839e1f70587bd0ae128df82e95",
          "blockNumber": "0xbb6a470",
          "transactionHash": "0xceeb44fdbe11e3fe1dbc1ec5ef640ff5412cae58307e7a62e095a4d1aa95a5c8",
          "transactionIndex": "0x1",
          "logIndex": "0xa",
          "removed": false
        },
        {
          "address": "0x1a2e956c4e342708688b878f07b469680487a3ba",
          "topics": [
            "0x1016dd3802d85d7f0edea8943b2098da8f36ba247e2a7d2999137e83bf2602da"
          ],
          "data": "0x00000000000000000000000000000000000000000000000000000002540be400000000000000000000000000000000000000000000000000000000012a05f200000000000000000000000000000000000000000000000000000000012a05f20000000000000000000000000000000000000000000000065fb969bb5d79d00000",
          "blockHash": "0x3e93ef323e0724ec279a949a45c741903342ef839e1f70587bd0ae128df82e95",
          "blockNumber": "0xbb6a470",
          "transactionHash": "0xceeb44fdbe11e3fe1dbc1ec5ef640ff5412cae58307e7a62e095a4d1aa95a5c8",
          "transactionIndex": "0x1",
          "logIndex": "0xb",
          "removed": false
        }
      ],
      "logsBloom": "0x00000000000002000000000000000000000000000000000000000000000000040000000000000000020000000000000020001000040000000000001000200400000000400000000080000008000000000000000000004000008000200000000000000000020000000000000000000800000000000004000000000010000000000400880000000000000000000000000000000008000000000000100080000000020000000000000000000020000000000000040800000000000000000000000000000002000000000000000000000000000000000008000000000010000020000010000000000200000000000000000000000000000000000200000000000000",
      "type": "0x2",
      "transactionHash": "0xceeb44fdbe11e3fe1dbc1ec5ef640ff5412cae58307e7a62e095a4d1aa95a5c8",
      "transactionIndex": "0x1",
      "blockHash": "0x3e93ef323e0724ec279a949a45c741903342ef839e1f70587bd0ae128df82e95",
      "blockNumber": "0xbb6a470",
      "gasUsed": "0x62f48",
      "effectiveGasPrice": "0x66720b300",
      "from": "0xd912d895924406ed71c591f914f1ee91cb6879ad",
      "to": "0x1a2e956c4e342708688b878f07b469680487a3ba",
      "contractAddress": null
    }
  ],
  "libraries": [],
  "pending": [],
  "returns": {},
  "timestamp": 1758156728950,
  "chain": 1001,
  "commit": "c90803a"
}