{
  "transactions": [
    {
      "hash": "0x756e215bdae76038efc852352475934c961bf037facfdbc4bf3abdeb22915c4f",
      "transactionType": "CALL",
      "contractName": null,
      "contractAddress": "0xffe5855e92fc4080da61c4c61bbd287f87afb9bb",
      "function": "approve(address,uint256)",
      "arguments": [
        "0x4d1feee2456b5FC1dac642D884d7022cA5F8C321",
        "10000000000"
      ],
      "transaction": {
        "from": "0xd912d895924406ed71c591f914f1ee91cb6879ad",
        "to": "0xffe5855e92fc4080da61c4c61bbd287f87afb9bb",
        "gas": "0xf7d3",
        "value": "0x0",
        "input": "0x095ea7b30000000000000000000000004d1feee2456b5fc1dac642d884d7022ca5f8c32100000000000000000000000000000000000000000000000000000002540be400",
        "nonce": "0x4f",
        "chainId": "0x3e9"
      },
      "additionalContracts": [],
      "isFixedGasLimit": false
    },
    {
      "hash": "0x4642d2cb1fe8605a13fd61445c69dcbbbdb00a35701c223b9f39a4768e6ae280",
      "transactionType": "CALL",
      "contractName": null,
      "contractAddress": "0x4d1feee2456b5fc1dac642d884d7022ca5f8c321",
      "function": "deposit(uint256,address)",
      "arguments": [
        "10000000000",
        "0xd912D895924406Ed71c591f914F1eE91cB6879ad"
      ],
      "transaction": {
        "from": "0xd912d895924406ed71c591f914f1ee91cb6879ad",
        "to": "0x4d1feee2456b5fc1dac642d884d7022ca5f8c321",
        "gas": "0x90050",
        "value": "0x0",
        "input": "0x6e553f6500000000000000000000000000000000000000000000000000000002540be400000000000000000000000000d912d895924406ed71c591f914f1ee91cb6879ad",
        "nonce": "0x50",
        "chainId": "0x3e9"
      },
      "additionalContracts": [],
      "isFixedGasLimit": false
    }
  ],
  "receipts": [
    {
      "status": "0x1",
      "cumulativeGasUsed": "0xb36d",
      "logs": [
        {
          "address": "0xffe5855e92fc4080da61c4c61bbd287f87afb9bb",
          "topics": [
            "0x8c5be1e5ebec7d5bd14f71427d1e84f3dd0314c0f7b2291e5b200ac8c7c3b925",
            "0x000000000000000000000000d912d895924406ed71c591f914f1ee91cb6879ad",
            "0x0000000000000000000000004d1feee2456b5fc1dac642d884d7022ca5f8c321"
          ],
          "data": "0x00000000000000000000000000000000000000000000000000000002540be400",
          "blockHash": "0x965812b355b660e2c99710822780897f71246ca901b4452101b25d05ac31ad4c",
          "blockNumber": "0xbb643e0",
          "transactionHash": "0x756e215bdae76038efc852352475934c961bf037facfdbc4bf3abdeb22915c4f",
          "transactionIndex": "0x0",
          "logIndex": "0x0",
          "removed": false
        }
      ],
      "logsBloom": "0x00000000000100000000000000000000000000000000000000000000000000000000000000000000020000000000000000000000040000000000000000200000000000000000200000000000000000000000000000000000008000000000000000000040000000000000000000000000000000000000000000000000000000000000000000000001000000000000000000000000000000000000000000000000020000000000000000000000000000000000000000000000000000000000000000000000000000000000000000000000000000000000000000000000000000000010000000000000000000000000420000000000000000000000000000000000",
      "type": "0x2",
      "transactionHash": "0x756e215bdae76038efc852352475934c961bf037facfdbc4bf3abdeb22915c4f",
      "transactionIndex": "0x0",
      "blockHash": "0x965812b355b660e2c99710822780897f71246ca901b4452101b25d05ac31ad4c",
      "blockNumber": "0xbb643e0",
      "gasUsed": "0xb36d",
      "effectiveGasPrice": "0x905ae1380",
      "from": "0xd912d895924406ed71c591f914f1ee91cb6879ad",
      "to": "0xffe5855e92fc4080da61c4c61bbd287f87afb9bb",
      "contractAddress": null
    },
    {
      "status": "0x1",
      "cumulativeGasUsed": "0x6db07",
      "logs": [
        {
          "address": "0xffe5855e92fc4080da61c4c61bbd287f87afb9bb",
          "topics": [
            "0xddf252ad1be2c89b69c2b068fc378daa952ba7f163c4a11628f55a4df523b3ef",
            "0x000000000000000000000000d912d895924406ed71c591f914f1ee91cb6879ad",
            "0x0000000000000000000000004d1feee2456b5fc1dac642d884d7022ca5f8c321"
          ],
          "data": "0x00000000000000000000000000000000000000000000000000000002540be400",
          "blockHash": "0x965812b355b660e2c99710822780897f71246ca901b4452101b25d05ac31ad4c",
          "blockNumber": "0xbb643e0",
          "transactionHash": "0x4642d2cb1fe8605a13fd61445c69dcbbbdb00a35701c223b9f39a4768e6ae280",
          "transactionIndex": "0x1",
          "logIndex": "0x1",
          "removed": false
        },
        {
          "address": "0x4d1feee2456b5fc1dac642d884d7022ca5f8c321",
          "topics": [
            "0xddf252ad1be2c89b69c2b068fc378daa952ba7f163c4a11628f55a4df523b3ef",
            "0x0000000000000000000000000000000000000000000000000000000000000000",
            "0x000000000000000000000000d912d895924406ed71c591f914f1ee91cb6879ad"
          ],
          "data": "0x00000000000000000000000000000000000000000000000000000002540be400",
          "blockHash": "0x965812b355b660e2c99710822780897f71246ca901b4452101b25d05ac31ad4c",
          "blockNumber": "0xbb643e0",
          "transactionHash": "0x4642d2cb1fe8605a13fd61445c69dcbbbdb00a35701c223b9f39a4768e6ae280",
          "transactionIndex": "0x1",
          "logIndex": "0x2",
          "removed": false
        },
        {
          "address": "0x4d1feee2456b5fc1dac642d884d7022ca5f8c321",
          "topics": [
            "0xdcbc1c05240f31ff3ad067ef1ee35ce4997762752e3a095284754544f4c709d7",
            "0x000000000000000000000000d912d895924406ed71c591f914f1ee91cb6879ad",
            "0x000000000000000000000000d912d895924406ed71c591f914f1ee91cb6879ad"
          ],
          "data": "0x00000000000000000000000000000000000000000000000000000002540be40000000000000000000000000000000000000000000000000000000002540be400",
          "blockHash": "0x965812b355b660e2c99710822780897f71246ca901b4452101b25d05ac31ad4c",
          "blockNumber": "0xbb643e0",
          "transactionHash": "0x4642d2cb1fe8605a13fd61445c69dcbbbdb00a35701c223b9f39a4768e6ae280",
          "transactionIndex": "0x1",
          "logIndex": "0x3",
          "removed": false
        },
        {
          "address": "0xffe5855e92fc4080da61c4c61bbd287f87afb9bb",
          "topics": [
            "0x8c5be1e5ebec7d5bd14f71427d1e84f3dd0314c0f7b2291e5b200ac8c7c3b925",
            "0x0000000000000000000000004d1feee2456b5fc1dac642d884d7022ca5f8c321",
            "0x00000000000000000000000070e4e1d98728f34ffbde99e4a752e6b779d73d96"
          ],
          "data": "0x0000000000000000000000000000000000000000000000000000000000000000",
          "blockHash": "0x965812b355b660e2c99710822780897f71246ca901b4452101b25d05ac31ad4c",
          "blockNumber": "0xbb643e0",
          "transactionHash": "0x4642d2cb1fe8605a13fd61445c69dcbbbdb00a35701c223b9f39a4768e6ae280",
          "transactionIndex": "0x1",
          "logIndex": "0x4",
          "removed": false
        },
        {
          "address": "0xffe5855e92fc4080da61c4c61bbd287f87afb9bb",
          "topics": [
            "0x8c5be1e5ebec7d5bd14f71427d1e84f3dd0314c0f7b2291e5b200ac8c7c3b925",
            "0x0000000000000000000000004d1feee2456b5fc1dac642d884d7022ca5f8c321",
            "0x00000000000000000000000070e4e1d98728f34ffbde99e4a752e6b779d73d96"
          ],
          "data": "0x000000000000000000000000000000000000000000000000000000012a05f200",
          "blockHash": "0x965812b355b660e2c99710822780897f71246ca901b4452101b25d05ac31ad4c",
          "blockNumber": "0xbb643e0",
          "transactionHash": "0x4642d2cb1fe8605a13fd61445c69dcbbbdb00a35701c223b9f39a4768e6ae280",
          "transactionIndex": "0x1",
          "logIndex": "0x5",
          "removed": false
        },
        {
          "address": "0xffe5855e92fc4080da61c4c61bbd287f87afb9bb",
          "topics": [
            "0xddf252ad1be2c89b69c2b068fc378daa952ba7f163c4a11628f55a4df523b3ef",
            "0x0000000000000000000000004d1feee2456b5fc1dac642d884d7022ca5f8c321",
            "0x00000000000000000000000070e4e1d98728f34ffbde99e4a752e6b779d73d96"
          ],
          "data": "0x000000000000000000000000000000000000000000000000000000012a05f200",
          "blockHash": "0x965812b355b660e2c99710822780897f71246ca901b4452101b25d05ac31ad4c",
          "blockNumber": "0xbb643e0",
          "transactionHash": "0x4642d2cb1fe8605a13fd61445c69dcbbbdb00a35701c223b9f39a4768e6ae280",
          "transactionIndex": "0x1",
          "logIndex": "0x6",
          "removed": false
        },
        {
          "address": "0x4b5f8867a29bc1c3e412aad82c8a7ed1272d7a1b",
          "topics": [
            "0xddf252ad1be2c89b69c2b068fc378daa952ba7f163c4a11628f55a4df523b3ef",
            "0x00000000000000000000000070e4e1d98728f34ffbde99e4a752e6b779d73d96",
            "0x0000000000000000000000004d1feee2456b5fc1dac642d884d7022ca5f8c321"
          ],
          "data": "0x0000000000000000000000000000000000000000000022bfe0fab0f001900000",
          "blockHash": "0x965812b355b660e2c99710822780897f71246ca901b4452101b25d05ac31ad4c",
          "blockNumber": "0xbb643e0",
          "transactionHash": "0x4642d2cb1fe8605a13fd61445c69dcbbbdb00a35701c223b9f39a4768e6ae280",
          "transactionIndex": "0x1",
          "logIndex": "0x7",
          "removed": false
        },
        {
          "address": "0xffe5855e92fc4080da61c4c61bbd287f87afb9bb",
          "topics": [
            "0x8c5be1e5ebec7d5bd14f71427d1e84f3dd0314c0f7b2291e5b200ac8c7c3b925",
            "0x0000000000000000000000004d1feee2456b5fc1dac642d884d7022ca5f8c321",
            "0x0000000000000000000000009ba2a474abe2dee033b71f60e78e05bbb60068a8"
          ],
          "data": "0x0000000000000000000000000000000000000000000000000000000000000000",
          "blockHash": "0x965812b355b660e2c99710822780897f71246ca901b4452101b25d05ac31ad4c",
          "blockNumber": "0xbb643e0",
          "transactionHash": "0x4642d2cb1fe8605a13fd61445c69dcbbbdb00a35701c223b9f39a4768e6ae280",
          "transactionIndex": "0x1",
          "logIndex": "0x8",
          "removed": false
        },
        {
          "address": "0xffe5855e92fc4080da61c4c61bbd287f87afb9bb",
          "topics": [
            "0x8c5be1e5ebec7d5bd14f71427d1e84f3dd0314c0f7b2291e5b200ac8c7c3b925",
            "0x0000000000000000000000004d1feee2456b5fc1dac642d884d7022ca5f8c321",
            "0x0000000000000000000000009ba2a474abe2dee033b71f60e78e05bbb60068a8"
          ],
          "data": "0x000000000000000000000000000000000000000000000000000000012a05f200",
          "blockHash": "0x965812b355b660e2c99710822780897f71246ca901b4452101b25d05ac31ad4c",
          "blockNumber": "0xbb643e0",
          "transactionHash": "0x4642d2cb1fe8605a13fd61445c69dcbbbdb00a35701c223b9f39a4768e6ae280",
          "transactionIndex": "0x1",
          "logIndex": "0x9",
          "removed": false
        },
        {
          "address": "0xffe5855e92fc4080da61c4c61bbd287f87afb9bb",
          "topics": [
            "0xddf252ad1be2c89b69c2b068fc378daa952ba7f163c4a11628f55a4df523b3ef",
            "0x0000000000000000000000004d1feee2456b5fc1dac642d884d7022ca5f8c321",
            "0x0000000000000000000000009ba2a474abe2dee033b71f60e78e05bbb60068a8"
          ],
          "data": "0x000000000000000000000000000000000000000000000000000000012a05f200",
          "blockHash": "0x965812b355b660e2c99710822780897f71246ca901b4452101b25d05ac31ad4c",
          "blockNumber": "0xbb643e0",
          "transactionHash": "0x4642d2cb1fe8605a13fd61445c69dcbbbdb00a35701c223b9f39a4768e6ae280",
          "transactionIndex": "0x1",
          "logIndex": "0xa",
          "removed": false
        },
        {
          "address": "0x4d1feee2456b5fc1dac642d884d7022ca5f8c321",
          "topics": [
            "0x1016dd3802d85d7f0edea8943b2098da8f36ba247e2a7d2999137e83bf2602da"
          ],
          "data": "0x00000000000000000000000000000000000000000000000000000002540be400000000000000000000000000000000000000000000000000000000012a05f200000000000000000000000000000000000000000000000000000000012a05f2000000000000000000000000000000000000000000000022bfe0fab0f001900000",
          "blockHash": "0x965812b355b660e2c99710822780897f71246ca901b4452101b25d05ac31ad4c",
          "blockNumber": "0xbb643e0",
          "transactionHash": "0x4642d2cb1fe8605a13fd61445c69dcbbbdb00a35701c223b9f39a4768e6ae280",
          "transactionIndex": "0x1",
          "logIndex": "0xb",
          "removed": false
        }
      ],
      "logsBloom": "0x00000000000100000000000080000000000000000000000000000000100000000000000000000000020000000000000800000000040000100000001000300000000000400000280080000008000000000000000000000000008000002000000000000040020000000000000000000800000000000004000000000010000000000400000000000001000000000000000000000000000000000000000000000004020000000000000000000000000000200000000000000000000000000000000000000002000000000000000000000000000000000008000000000000000020000010000000000000000000000000420000800000000002000000000400000000",
      "type": "0x2",
      "transactionHash": "0x4642d2cb1fe8605a13fd61445c69dcbbbdb00a35701c223b9f39a4768e6ae280",
      "transactionIndex": "0x1",
      "blockHash": "0x965812b355b660e2c99710822780897f71246ca901b4452101b25d05ac31ad4c",
      "blockNumber": "0xbb643e0",
      "gasUsed": "0x6279a",
      "effectiveGasPrice": "0x905ae1380",
      "from": "0xd912d895924406ed71c591f914f1ee91cb6879ad",
      "to": "0x4d1feee2456b5fc1dac642d884d7022ca5f8c321",
      "contractAddress": null
    }
  ],
  "libraries": [],
  "pending": [],
  "returns": {},
  "timestamp": 1758132009136,
  "chain": 1001,
  "commit": "44a7b9c"
}